{
  "_format": "hh-sol-artifact-1",
  "contractName": "SplitIt",
  "sourceName": "contracts/SplitPayments.sol",
  "abi": [
    {
      "inputs": [
        {
          "internalType": "address[]",
          "name": "payees",
          "type": "address[]"
        },
        {
          "internalType": "uint256[]",
          "name": "shares",
          "type": "uint256[]"
        }
      ],
      "stateMutability": "payable",
      "type": "constructor"
    },
    {
      "anonymous": false,
      "inputs": [
        {
          "indexed": true,
          "internalType": "contract IERC20",
          "name": "token",
          "type": "address"
        },
        {
          "indexed": false,
          "internalType": "address",
          "name": "to",
          "type": "address"
        },
        {
          "indexed": false,
          "internalType": "uint256",
          "name": "amount",
          "type": "uint256"
        }
      ],
      "name": "ERC20PaymentReleased",
      "type": "event"
    },
    {
      "anonymous": false,
      "inputs": [
        {
          "indexed": false,
          "internalType": "address",
          "name": "account",
          "type": "address"
        },
        {
          "indexed": false,
          "internalType": "uint256",
          "name": "shares",
          "type": "uint256"
        }
      ],
      "name": "PayeeAdded",
      "type": "event"
    },
    {
      "anonymous": false,
      "inputs": [
        {
          "indexed": false,
          "internalType": "address",
          "name": "from",
          "type": "address"
        },
        {
          "indexed": false,
          "internalType": "uint256",
          "name": "amount",
          "type": "uint256"
        }
      ],
      "name": "PaymentReceived",
      "type": "event"
    },
    {
      "anonymous": false,
      "inputs": [
        {
          "indexed": false,
          "internalType": "address",
          "name": "to",
          "type": "address"
        },
        {
          "indexed": false,
          "internalType": "uint256",
          "name": "amount",
          "type": "uint256"
        }
      ],
      "name": "PaymentReleased",
      "type": "event"
    },
    {
      "inputs": [
        {
          "internalType": "uint256",
          "name": "index",
          "type": "uint256"
        }
      ],
      "name": "payee",
      "outputs": [
        {
          "internalType": "address",
          "name": "",
          "type": "address"
        }
      ],
      "stateMutability": "view",
      "type": "function"
    },
    {
      "inputs": [
        {
          "internalType": "address",
          "name": "account",
          "type": "address"
        }
      ],
      "name": "releasable",
      "outputs": [
        {
          "internalType": "uint256",
          "name": "",
          "type": "uint256"
        }
      ],
      "stateMutability": "view",
      "type": "function"
    },
    {
      "inputs": [
        {
          "internalType": "contract IERC20",
          "name": "token",
          "type": "address"
        },
        {
          "internalType": "address",
          "name": "account",
          "type": "address"
        }
      ],
      "name": "releasable",
      "outputs": [
        {
          "internalType": "uint256",
          "name": "",
          "type": "uint256"
        }
      ],
      "stateMutability": "view",
      "type": "function"
    },
    {
      "inputs": [
        {
          "internalType": "address payable",
          "name": "account",
          "type": "address"
        }
      ],
      "name": "release",
      "outputs": [],
      "stateMutability": "nonpayable",
      "type": "function"
    },
    {
      "inputs": [
        {
          "internalType": "contract IERC20",
          "name": "token",
          "type": "address"
        },
        {
          "internalType": "address",
          "name": "account",
          "type": "address"
        }
      ],
      "name": "release",
      "outputs": [],
      "stateMutability": "nonpayable",
      "type": "function"
    },
    {
      "inputs": [
        {
          "internalType": "contract IERC20",
          "name": "token",
          "type": "address"
        },
        {
          "internalType": "address",
          "name": "account",
          "type": "address"
        }
      ],
      "name": "released",
      "outputs": [
        {
          "internalType": "uint256",
          "name": "",
          "type": "uint256"
        }
      ],
      "stateMutability": "view",
      "type": "function"
    },
    {
      "inputs": [
        {
          "internalType": "address",
          "name": "account",
          "type": "address"
        }
      ],
      "name": "released",
      "outputs": [
        {
          "internalType": "uint256",
          "name": "",
          "type": "uint256"
        }
      ],
      "stateMutability": "view",
      "type": "function"
    },
    {
      "inputs": [
        {
          "internalType": "address",
          "name": "account",
          "type": "address"
        }
      ],
      "name": "shares",
      "outputs": [
        {
          "internalType": "uint256",
          "name": "",
          "type": "uint256"
        }
      ],
      "stateMutability": "view",
      "type": "function"
    },
    {
      "inputs": [
        {
          "internalType": "contract IERC20",
          "name": "token",
          "type": "address"
        }
      ],
      "name": "totalReleased",
      "outputs": [
        {
          "internalType": "uint256",
          "name": "",
          "type": "uint256"
        }
      ],
      "stateMutability": "view",
      "type": "function"
    },
    {
      "inputs": [],
      "name": "totalReleased",
      "outputs": [
        {
          "internalType": "uint256",
          "name": "",
          "type": "uint256"
        }
      ],
      "stateMutability": "view",
      "type": "function"
    },
    {
      "inputs": [],
      "name": "totalShares",
      "outputs": [
        {
          "internalType": "uint256",
          "name": "",
          "type": "uint256"
        }
      ],
      "stateMutability": "view",
      "type": "function"
    },
    {
      "stateMutability": "payable",
      "type": "receive"
    }
  ],
  "bytecode": "0x6080604052604051620022e2380380620022e2833981810160405281019062000029919062000663565b8181805182511462000072576040517f08c379a000000000000000000000000000000000000000000000000000000000815260040162000069906200076f565b60405180910390fd5b6000825111620000b9576040517f08c379a0000000000000000000000000000000000000000000000000000000008152600401620000b090620007e1565b60405180910390fd5b60005b8251811015620001205762000112838281518110620000e057620000df62000803565b5b6020026020010151838381518110620000fe57620000fd62000803565b5b60200260200101516200012b60201b60201c565b8080600101915050620000bc565b505050505062000a8d565b600073ffffffffffffffffffffffffffffffffffffffff168273ffffffffffffffffffffffffffffffffffffffff16036200019d576040517f08c379a00000000000000000000000000000000000000000000000000000000081526004016200019490620008a8565b60405180910390fd5b60008111620001e3576040517f08c379a0000000000000000000000000000000000000000000000000000000008152600401620001da906200091a565b60405180910390fd5b6000600260008473ffffffffffffffffffffffffffffffffffffffff1673ffffffffffffffffffffffffffffffffffffffff168152602001908152602001600020541462000268576040517f08c379a00000000000000000000000000000000000000000000000000000000081526004016200025f90620009b2565b60405180910390fd5b6004829080600181540180825580915050600190039060005260206000200160009091909190916101000a81548173ffffffffffffffffffffffffffffffffffffffff021916908373ffffffffffffffffffffffffffffffffffffffff16021790555080600260008473ffffffffffffffffffffffffffffffffffffffff1673ffffffffffffffffffffffffffffffffffffffff16815260200190815260200160002081905550806000546200031f919062000a03565b6000819055507f40c340f65e17194d14ddddb073d3c9f888e3cb52b5aae0c6c7706b4fbc905fac82826040516200035892919062000a60565b60405180910390a15050565b6000604051905090565b600080fd5b600080fd5b600080fd5b6000601f19601f8301169050919050565b7f4e487b7100000000000000000000000000000000000000000000000000000000600052604160045260246000fd5b620003c8826200037d565b810181811067ffffffffffffffff82111715620003ea57620003e96200038e565b5b80604052505050565b6000620003ff62000364565b90506200040d8282620003bd565b919050565b600067ffffffffffffffff82111562000430576200042f6200038e565b5b602082029050602081019050919050565b600080fd5b600073ffffffffffffffffffffffffffffffffffffffff82169050919050565b6000620004738262000446565b9050919050565b620004858162000466565b81146200049157600080fd5b50565b600081519050620004a5816200047a565b92915050565b6000620004c2620004bc8462000412565b620003f3565b90508083825260208201905060208402830185811115620004e857620004e762000441565b5b835b8181101562000515578062000500888262000494565b845260208401935050602081019050620004ea565b5050509392505050565b600082601f83011262000537576200053662000378565b5b815162000549848260208601620004ab565b91505092915050565b600067ffffffffffffffff82111562000570576200056f6200038e565b5b602082029050602081019050919050565b6000819050919050565b620005968162000581565b8114620005a257600080fd5b50565b600081519050620005b6816200058b565b92915050565b6000620005d3620005cd8462000552565b620003f3565b90508083825260208201905060208402830185811115620005f957620005f862000441565b5b835b81811015620006265780620006118882620005a5565b845260208401935050602081019050620005fb565b5050509392505050565b600082601f83011262000648576200064762000378565b5b81516200065a848260208601620005bc565b91505092915050565b600080604083850312156200067d576200067c6200036e565b5b600083015167ffffffffffffffff8111156200069e576200069d62000373565b5b620006ac858286016200051f565b925050602083015167ffffffffffffffff811115620006d057620006cf62000373565b5b620006de8582860162000630565b9150509250929050565b600082825260208201905092915050565b7f5061796d656e7453706c69747465723a2070617965657320616e64207368617260008201527f6573206c656e677468206d69736d617463680000000000000000000000000000602082015250565b600062000757603283620006e8565b91506200076482620006f9565b604082019050919050565b600060208201905081810360008301526200078a8162000748565b9050919050565b7f5061796d656e7453706c69747465723a206e6f20706179656573000000000000600082015250565b6000620007c9601a83620006e8565b9150620007d68262000791565b602082019050919050565b60006020820190508181036000830152620007fc81620007ba565b9050919050565b7f4e487b7100000000000000000000000000000000000000000000000000000000600052603260045260246000fd5b7f5061796d656e7453706c69747465723a206163636f756e74206973207468652060008201527f7a65726f20616464726573730000000000000000000000000000000000000000602082015250565b600062000890602c83620006e8565b91506200089d8262000832565b604082019050919050565b60006020820190508181036000830152620008c38162000881565b9050919050565b7f5061796d656e7453706c69747465723a20736861726573206172652030000000600082015250565b600062000902601d83620006e8565b91506200090f82620008ca565b602082019050919050565b600060208201905081810360008301526200093581620008f3565b9050919050565b7f5061796d656e7453706c69747465723a206163636f756e7420616c726561647960008201527f2068617320736861726573000000000000000000000000000000000000000000602082015250565b60006200099a602b83620006e8565b9150620009a7826200093c565b604082019050919050565b60006020820190508181036000830152620009cd816200098b565b9050919050565b7f4e487b7100000000000000000000000000000000000000000000000000000000600052601160045260246000fd5b600062000a108262000581565b915062000a1d8362000581565b925082820190508082111562000a385762000a37620009d4565b5b92915050565b62000a498162000466565b82525050565b62000a5a8162000581565b82525050565b600060408201905062000a77600083018562000a3e565b62000a86602083018462000a4f565b9392505050565b6118458062000a9d6000396000f3fe6080604052600436106100a05760003560e01c80639852595c116100645780639852595c146101e3578063a3f8eace14610220578063c45ac0501461025d578063ce7c2ac21461029a578063d79779b2146102d7578063e33b7de314610314576100e7565b806319165587146100ec5780633a98ef3914610115578063406072a91461014057806348b750441461017d5780638b83209b146101a6576100e7565b366100e7577f6ef95f06320e7a25a04a175ca677b7052bdd97131872c2192525a629f51be7706100ce61033f565b346040516100dd929190610e4f565b60405180910390a1005b600080fd5b3480156100f857600080fd5b50610113600480360381019061010e9190610ebb565b610347565b005b34801561012157600080fd5b5061012a6104c6565b6040516101379190610ee8565b60405180910390f35b34801561014c57600080fd5b5061016760048036038101906101629190610f6d565b6104cf565b6040516101749190610ee8565b60405180910390f35b34801561018957600080fd5b506101a4600480360381019061019f9190610f6d565b610556565b005b3480156101b257600080fd5b506101cd60048036038101906101c89190610fd9565b610769565b6040516101da9190611006565b60405180910390f35b3480156101ef57600080fd5b5061020a60048036038101906102059190611021565b6107b1565b6040516102179190610ee8565b60405180910390f35b34801561022c57600080fd5b5061024760048036038101906102429190611021565b6107fa565b6040516102549190610ee8565b60405180910390f35b34801561026957600080fd5b50610284600480360381019061027f9190610f6d565b61082d565b6040516102919190610ee8565b60405180910390f35b3480156102a657600080fd5b506102c160048036038101906102bc9190611021565b6108dc565b6040516102ce9190610ee8565b60405180910390f35b3480156102e357600080fd5b506102fe60048036038101906102f9919061104e565b610925565b60405161030b9190610ee8565b60405180910390f35b34801561032057600080fd5b5061032961096e565b6040516103369190610ee8565b60405180910390f35b600033905090565b6000600260008373ffffffffffffffffffffffffffffffffffffffff1673ffffffffffffffffffffffffffffffffffffffff16815260200190815260200160002054116103c9576040517f08c379a00000000000000000000000000000000000000000000000000000000081526004016103c0906110fe565b60405180910390fd5b60006103d4826107fa565b905060008103610419576040517f08c379a000000000000000000000000000000000000000000000000000000000815260040161041090611190565b60405180910390fd5b806001600082825461042b91906111df565b9250508190555080600360008473ffffffffffffffffffffffffffffffffffffffff1673ffffffffffffffffffffffffffffffffffffffff168152602001908152602001600020600082825401925050819055506104898282610978565b7fdf20fd1e76bc69d672e4814fafb2c449bba3a5369d8359adf9e05e6fde87b05682826040516104ba929190611272565b60405180910390a15050565b60008054905090565b6000600660008473ffffffffffffffffffffffffffffffffffffffff1673ffffffffffffffffffffffffffffffffffffffff16815260200190815260200160002060008373ffffffffffffffffffffffffffffffffffffffff1673ffffffffffffffffffffffffffffffffffffffff16815260200190815260200160002054905092915050565b6000600260008373ffffffffffffffffffffffffffffffffffffffff1673ffffffffffffffffffffffffffffffffffffffff16815260200190815260200160002054116105d8576040517f08c379a00000000000000000000000000000000000000000000000000000000081526004016105cf906110fe565b60405180910390fd5b60006105e4838361082d565b905060008103610629576040517f08c379a000000000000000000000000000000000000000000000000000000000815260040161062090611190565b60405180910390fd5b80600560008573ffffffffffffffffffffffffffffffffffffffff1673ffffffffffffffffffffffffffffffffffffffff168152602001908152602001600020600082825461067891906111df565b9250508190555080600660008573ffffffffffffffffffffffffffffffffffffffff1673ffffffffffffffffffffffffffffffffffffffff16815260200190815260200160002060008473ffffffffffffffffffffffffffffffffffffffff1673ffffffffffffffffffffffffffffffffffffffff16815260200190815260200160002060008282540192505081905550610714838383610a6c565b8273ffffffffffffffffffffffffffffffffffffffff167f3be5b7a71e84ed12875d241991c70855ac5817d847039e17a9d895c1ceb0f18a838360405161075c929190610e4f565b60405180910390a2505050565b60006004828154811061077f5761077e61129b565b5b9060005260206000200160009054906101000a900473ffffffffffffffffffffffffffffffffffffffff169050919050565b6000600360008373ffffffffffffffffffffffffffffffffffffffff1673ffffffffffffffffffffffffffffffffffffffff168152602001908152602001600020549050919050565b60008061080561096e565b4761081091906111df565b90506108258382610820866107b1565b610af2565b915050919050565b60008061083984610925565b8473ffffffffffffffffffffffffffffffffffffffff166370a08231306040518263ffffffff1660e01b81526004016108729190611006565b602060405180830381865afa15801561088f573d6000803e3d6000fd5b505050506040513d601f19601f820116820180604052508101906108b391906112df565b6108bd91906111df565b90506108d383826108ce87876104cf565b610af2565b91505092915050565b6000600260008373ffffffffffffffffffffffffffffffffffffffff1673ffffffffffffffffffffffffffffffffffffffff168152602001908152602001600020549050919050565b6000600560008373ffffffffffffffffffffffffffffffffffffffff1673ffffffffffffffffffffffffffffffffffffffff168152602001908152602001600020549050919050565b6000600154905090565b804710156109bb576040517f08c379a00000000000000000000000000000000000000000000000000000000081526004016109b290611358565b60405180910390fd5b60008273ffffffffffffffffffffffffffffffffffffffff16826040516109e1906113a9565b60006040518083038185875af1925050503d8060008114610a1e576040519150601f19603f3d011682016040523d82523d6000602084013e610a23565b606091505b5050905080610a67576040517f08c379a0000000000000000000000000000000000000000000000000000000008152600401610a5e90611430565b60405180910390fd5b505050565b610aed8363a9059cbb60e01b8484604051602401610a8b929190610e4f565b604051602081830303815290604052907bffffffffffffffffffffffffffffffffffffffffffffffffffffffff19166020820180517bffffffffffffffffffffffffffffffffffffffffffffffffffffffff8381831617835250505050610b60565b505050565b600081600054600260008773ffffffffffffffffffffffffffffffffffffffff1673ffffffffffffffffffffffffffffffffffffffff1681526020019081526020016000205485610b439190611450565b610b4d91906114c1565b610b5791906114f2565b90509392505050565b6000610bc2826040518060400160405280602081526020017f5361666545524332303a206c6f772d6c6576656c2063616c6c206661696c65648152508573ffffffffffffffffffffffffffffffffffffffff16610c289092919063ffffffff16565b9050600081511480610be4575080806020019051810190610be3919061155e565b5b610c23576040517f08c379a0000000000000000000000000000000000000000000000000000000008152600401610c1a906115fd565b60405180910390fd5b505050565b6060610c378484600085610c40565b90509392505050565b606082471015610c85576040517f08c379a0000000000000000000000000000000000000000000000000000000008152600401610c7c9061168f565b60405180910390fd5b6000808673ffffffffffffffffffffffffffffffffffffffff168587604051610cae9190611715565b60006040518083038185875af1925050503d8060008114610ceb576040519150601f19603f3d011682016040523d82523d6000602084013e610cf0565b606091505b5091509150610d0187838387610d0d565b92505050949350505050565b60608315610d6f576000835103610d6757610d2785610d82565b610d66576040517f08c379a0000000000000000000000000000000000000000000000000000000008152600401610d5d90611778565b60405180910390fd5b5b829050610d7a565b610d798383610da5565b5b949350505050565b6000808273ffffffffffffffffffffffffffffffffffffffff163b119050919050565b600082511115610db85781518083602001fd5b806040517f08c379a0000000000000000000000000000000000000000000000000000000008152600401610dec91906117ed565b60405180910390fd5b600073ffffffffffffffffffffffffffffffffffffffff82169050919050565b6000610e2082610df5565b9050919050565b610e3081610e15565b82525050565b6000819050919050565b610e4981610e36565b82525050565b6000604082019050610e646000830185610e27565b610e716020830184610e40565b9392505050565b600080fd5b6000610e8882610df5565b9050919050565b610e9881610e7d565b8114610ea357600080fd5b50565b600081359050610eb581610e8f565b92915050565b600060208284031215610ed157610ed0610e78565b5b6000610edf84828501610ea6565b91505092915050565b6000602082019050610efd6000830184610e40565b92915050565b6000610f0e82610e15565b9050919050565b610f1e81610f03565b8114610f2957600080fd5b50565b600081359050610f3b81610f15565b92915050565b610f4a81610e15565b8114610f5557600080fd5b50565b600081359050610f6781610f41565b92915050565b60008060408385031215610f8457610f83610e78565b5b6000610f9285828601610f2c565b9250506020610fa385828601610f58565b9150509250929050565b610fb681610e36565b8114610fc157600080fd5b50565b600081359050610fd381610fad565b92915050565b600060208284031215610fef57610fee610e78565b5b6000610ffd84828501610fc4565b91505092915050565b600060208201905061101b6000830184610e27565b92915050565b60006020828403121561103757611036610e78565b5b600061104584828501610f58565b91505092915050565b60006020828403121561106457611063610e78565b5b600061107284828501610f2c565b91505092915050565b600082825260208201905092915050565b7f5061796d656e7453706c69747465723a206163636f756e7420686173206e6f2060008201527f7368617265730000000000000000000000000000000000000000000000000000602082015250565b60006110e860268361107b565b91506110f38261108c565b604082019050919050565b60006020820190508181036000830152611117816110db565b9050919050565b7f5061796d656e7453706c69747465723a206163636f756e74206973206e6f742060008201527f647565207061796d656e74000000000000000000000000000000000000000000602082015250565b600061117a602b8361107b565b91506111858261111e565b604082019050919050565b600060208201905081810360008301526111a98161116d565b9050919050565b7f4e487b7100000000000000000000000000000000000000000000000000000000600052601160045260246000fd5b60006111ea82610e36565b91506111f583610e36565b925082820190508082111561120d5761120c6111b0565b5b92915050565b6000819050919050565b600061123861123361122e84610df5565b611213565b610df5565b9050919050565b600061124a8261121d565b9050919050565b600061125c8261123f565b9050919050565b61126c81611251565b82525050565b60006040820190506112876000830185611263565b6112946020830184610e40565b9392505050565b7f4e487b7100000000000000000000000000000000000000000000000000000000600052603260045260246000fd5b6000815190506112d981610fad565b92915050565b6000602082840312156112f5576112f4610e78565b5b6000611303848285016112ca565b91505092915050565b7f416464726573733a20696e73756666696369656e742062616c616e6365000000600082015250565b6000611342601d8361107b565b915061134d8261130c565b602082019050919050565b6000602082019050818103600083015261137181611335565b9050919050565b600081905092915050565b50565b6000611393600083611378565b915061139e82611383565b600082019050919050565b60006113b482611386565b9150819050919050565b7f416464726573733a20756e61626c6520746f2073656e642076616c75652c207260008201527f6563697069656e74206d61792068617665207265766572746564000000000000602082015250565b600061141a603a8361107b565b9150611425826113be565b604082019050919050565b600060208201905081810360008301526114498161140d565b9050919050565b600061145b82610e36565b915061146683610e36565b925082820261147481610e36565b9150828204841483151761148b5761148a6111b0565b5b5092915050565b7f4e487b7100000000000000000000000000000000000000000000000000000000600052601260045260246000fd5b60006114cc82610e36565b91506114d783610e36565b9250826114e7576114e6611492565b5b828204905092915050565b60006114fd82610e36565b915061150883610e36565b92508282039050818111156115205761151f6111b0565b5b92915050565b60008115159050919050565b61153b81611526565b811461154657600080fd5b50565b60008151905061155881611532565b92915050565b60006020828403121561157457611573610e78565b5b600061158284828501611549565b91505092915050565b7f5361666545524332303a204552433230206f7065726174696f6e20646964206e60008201527f6f74207375636365656400000000000000000000000000000000000000000000602082015250565b60006115e7602a8361107b565b91506115f28261158b565b604082019050919050565b60006020820190508181036000830152611616816115da565b9050919050565b7f416464726573733a20696e73756666696369656e742062616c616e636520666f60008201527f722063616c6c0000000000000000000000000000000000000000000000000000602082015250565b600061167960268361107b565b91506116848261161d565b604082019050919050565b600060208201905081810360008301526116a88161166c565b9050919050565b600081519050919050565b60005b838110156116d85780820151818401526020810190506116bd565b60008484015250505050565b60006116ef826116af565b6116f98185611378565b93506117098185602086016116ba565b80840191505092915050565b600061172182846116e4565b915081905092915050565b7f416464726573733a2063616c6c20746f206e6f6e2d636f6e7472616374000000600082015250565b6000611762601d8361107b565b915061176d8261172c565b602082019050919050565b6000602082019050818103600083015261179181611755565b9050919050565b600081519050919050565b6000601f19601f8301169050919050565b60006117bf82611798565b6117c9818561107b565b93506117d98185602086016116ba565b6117e2816117a3565b840191505092915050565b6000602082019050818103600083015261180781846117b4565b90509291505056fea2646970667358221220e79fff94486fe9e62d4e9aa97989c3af7f0e5c06d42260de0c75d3e8bbf1639764736f6c63430008180033",
  "linkReferences": {},
  "deployedLinkReferences": {}
}